:020000040800F2
:10000000702A002045010008313500082729000822
:1000100000000000000000000000000000000000E0
:10002000000000000000000000000000D3370008BE
:10003000000000000000000003010008D5370008A0
:100040005701000800000000570100085701000890
:100050005701000857010008570100085701000820
:100060000000000057010008570100085701000870
:1000700001030008570100085701000800000000B4
:100080006D3800087D380008570100085701000846
:1000900057010008570100085701000857010008E0
:1000A00057010008570100085701000857010008D0
:1000B00085460008954600080348854600F0BAF8D2
:1000C00000480047154E0008702A0020084B1968A8
:1000D0000868203080F30988022080F31488BFF379
:1000E0006F8F3FBCAE4608BC04BC62B61847000028
:1000F00060010020EFF3108072B6704780F3108823
:100100007047EFF309800E4B1A6820381060F0C07A
:1001100044464D4656465F46F0C008B572B605F0F7
:1001200033FA62B60CBC116808681030F0C8A046FB
:10013000A946B246BB4680F309882038F0C8184764
:10014000600100200448804704480047FEE7FEE7BE
:10015000FEE7FEE7FEE7FEE76B380008B90000089F
:1001600030B50B46014600202022012409E00D464F
:10017000D5409D4205D31D469540491B25469540D7
:1001800040191546521E002DF1DC30BD03460B43CD
:100190009B0703D009E008C9121F08C0042AFAD23D
:1001A00003E00B780370401C491C521EF9D27047C3
:1001B000D2B201E00270401C491EFBD270470022FF
:1001C000F6E710B513460A4604461946FFF7F0FF56
:1001D000204610BDF0B51FB40646002082B005468B
:1001E0004024019100901BE0019922460F463046C1
:1001F00000F042F8049A059B801A994110D31046EA
:100200001946224600F028F8361A8F4101972246F7
:1002100001200021009F00F01FF838184D41009088
:100220002046641E0028DFDC019B009829463246E8
:1002300007B0F0BD064C0125064E05E0E36807CC8B
:100240002B430C3C98471034B442F7D3FFF738FFE8
:10025000F05800081059000810B5202A04DB0146A8
:10026000203A9140002010BD914020239C1A034663
:10027000E3401943904010BD10B5202A04DB084626
:10028000203AD040002110BD0B46D340D04020245E
:10029000A21A91400843194610BD30B58C18027857
:1002A000401C13071B0F01D10378401C120906D113
:1002B0000278401C03E005780D70401C491C5B1E51
:1002C000F9D101E00B70491C521EFBD1A142E6D3CB
:1002D000002030BD70B500242546084800F0E8FC39
:1002E000064800F0E1FA641C4519E4B20A2CF4D384
:1002F0000A212846FFF734FF80B270BDF8090020BC
:1003000010B5024800F0D4FA10BD0000F809002032
:10031000F8B5044600200090206802F037FB002862
:1003200045D120688168234A10261140002930D128
:100330008168D5432940491C81601F480068072116
:100340008905084000020AD51D481C490068FFF7CE
:1003500007FF401C00E0401E00900028FBD1607E9B
:10036000012824D000F0BAFE07461BE002F00EFB85
:10037000002804D1206881682940491C816000F070
:10038000ADFEC01B02280DD920680068C043C0071D
:1003900008D0A06D3043A065E06D01210843E06501
:1003A0000846F8BD20680168C943C907DED10020AE
:1003B000F8BD00001700008008270140400D030031
:1003C0005C0100200025FF27F5370C4C0126FFF7C4
:1003D00081FF8C2806D9E571FFF77CFF384604F0D1
:1003E00073FD06E0FFF776FF014605A004F06CFA06
:1003F000E671322004F068FDE9E7000010010020FA
:10040000414443315F4765745661756C653D2564B1
:100410000D0A00001CB55A21684601700E4801689B
:1004200068464170022181700621C1700B484178F5
:100430006846017100214171AA218171012003F0F8
:100440001DFCFF232D3307226946054802F0FEF903
:10045000002003F013FC1CBD38010020500B0020CD
:10046000840C002070B5114C00281AD002F050FC0A
:100470000021204601F072FBE1252068AD004563B4
:10048000642000F0C1FC7D20000102F0AFFC0021DF
:10049000204601F063FB20684563C82000F0B4FCEF
:1004A00070BD21680020486370BD0000040B00206F
:1004B00010B5064CE120216880004863642000F0FC
:1004C000A3FC21680020486310BD0000040B00203D
:1004D000E1247D260D4DA400360102F019FC002117
:1004E0000A4801F03BFB28684463642004F0ECFCFC
:1004F000304602F07BFC0021044801F02FFB286805
:100500004463C82004F0E0FCE7E70000040B00208F
:1005100010B503461046064C03E01A784240A05C32
:100520005B1C0A46491EC9B2002AF6D110BD000064
:100530000400002072B6FEE703494A6901231B0448
:10054000184302434A61704700200240044A506940
:10055000044BC900184001430348014351617047EF
:100560000020024007E0FFFF0200010030B505490E
:100570004C6901252C434C610260BFF36F8F4360CF
:1005800030BD00000020024030B50B4C00236269F2
:100590000125AD042A436261EFF3108272B620C9CF
:1005A0005B1C20C0DBB2402BF9D32069C003FCD414
:1005B00082F3108830BD000000200240F8B50546E7
:1005C00000F08CFD471901263604114C03E000F0C1
:1005D00085FDB84214D220693042F8D121690D4816
:1005E00001400D48206103D00C4841600120F8BD56
:1005F00000F074FD451905E000F070FDA84201D33C
:100600000320F8BD20694003F6D40020F8BD0000A7
:1006100000200240FA830000FB830000600D0020F0
:1006200070B500240526254636070121304600F026
:1006300041FD012804D10A2000F0E6FB641CE4B26D
:100640006D1CEDB20A2DF0D30548092C01D9022109
:1006500000E001210160016802A004F035F970BDDD
:1006600038010020496E666F2E4A49514948414F72
:100670003D253032780D0A0070477047704770474B
:10068000F8B500270646044640360097307D0D46F3
:1006900001280FD001203075206802F07BF9002876
:1006A0000AD0A06D20210843A065012700203075E5
:1006B0003846F8BD0220F8BD686802287ED00122C5
:1006C0002169D207914202D0121D914206D12068C1
:1006D0002968826A4903490B0A436EE0C206D20EBA
:1006E0000F20216E904081432868430302D0C30746
:1006F0004BD102E04000C00E48E0830701D5012045
:1007000044E0430701D5022040E0030701D5032060
:100710003CE0C30601D5042038E0830601D505205E
:1007200034E0430601D5062030E0030601D507205A
:100730002CE0C30501D5082028E0830501D5092058
:1007400024E0430501D50A2020E0030501D50B2054
:100750001CE0C30401D50C2018E0830401D50D2052
:1007600014E0430401D50E2010E0030401D50F204E
:100770000CE0C30301D5102008E0830301D511204C
:1007800004E0400301D5122000E000209040014326
:1007900021666968E2698808401C904210D8206888
:1007A0002B68826A9C46C906C90E0F238B409A4368
:1007B00063469B001B0F8B401A4300E03BE08262C4
:1007C0002168AB6828684A690002824318404001EA
:1007D000400902434A612868002800DB66E72B4A8B
:1007E000116807239B051940294B984214D10B022D
:1007F00012D4C0020143104602F0D8F82648254919
:100800000068FFF7ADFC0C21401C484300E0401E8F
:1008100000900028FBD149E7204B984203D1CB013F
:1008200001D4800205E01E4B9842D7D14802D5D4AE
:100830005802014325E001212069C907884202D0FE
:10084000091D884206D120682968826A4903490B3C
:100850008A43826228680028C0DA0C4A116807239C
:100860009B0519400A4B984201D1C00208E00B4B8E
:10087000984201D1800203E0094B9842AED1400278
:100880008143104602F092F810E70000082701406B
:10089000001000B0400D03005C010020004000B8D3
:1008A000002000B4704770470068006C704700007B
:1008B000F8B50446006806684568B0070FD5A80774
:1008C0000DD5A06DC00604D4A06D0121C902084356
:1008D000A0652046FFF7D1FE216802200860474F3F
:1008E000700701D5680703D4300728D5280726D517
:1008F000A06DC00604D4A06D012149020843A06583
:10090000206802F04BF8002813D0A07E002810D1F8
:100910002068016809070CD502F03CF80146012067
:10092000002960D0A16D20221143A165E16D014332
:10093000E1652046FFF7B6FF21680C20086030060D
:100940000CD528060AD5A06D012109040843A0652D
:10095000204600F065F9216880200860F0050BD57D
:10096000E80509D5A06D012149040843A06520468A
:10097000FFF784FE20680760B0050DD5A8050BD5EC
:10098000A06D012189040843A0652046FFF777FE8A
:100990000120216840020860F00618D5E80616D547
:1009A000206B002804D02068C0688007800F0BD01F
:1009B000A06D012189020843A065E06D0221084372
:1009C000E0652046FFF76FFF216810200860B00443
:1009D00008D5A80406D52046FFF74EFE0120216861
:1009E00040030860F8BD21684A680C239A434A60B6
:1009F000A16DB9430143A1659BE700000001000020
:100A0000FEB50027044601973E460297009700284E
:100A100005D02546A06D2035002802D007E0012032
:100A2000FEBD204600F0FEF8E6655420065520681D
:100A30008168C900C90F12D18168724A1140012230
:100A400012071143816071486F490068FFF788FB06
:100A50004000801C00E0401E00900028FBD1206870
:100A60008168C900C90F08D1A16D10221143A16589
:100A7000E16D01221143E165174601F08BFFA16D85
:100A8000C90601D4002804D0A06D10210843A06538
:100A9000B4E0A06DFF210131884302210843A06525
:100AA000206801F073FF00286DD1217EA0688903C2
:100AB0000843617ECA03A17E4B031A431043226B95
:100AC000002A01D0012212031043E2681043226978
:100AD000002A02DA5200520801E0012252051043B6
:100AE0002A7B52001043019A10432A78012A09D127
:100AF000002922D0A16D20221143A165E16D0122C0
:100B00001143E165616A002906D0FF23C133194012
:100B1000A26A0143104608432168CA683C4B1A4048
:100B20000243CA606168029A890F8907E06C0A4330
:100B300010432A7F012A04D00CE001210904084354
:100B4000E0E7636C226C491C1A43A36C0B4311460B
:100B50001943084321680A692E4B1A4002430A616F
:100B600003216068890788420DD0590788420AD05E
:100B70004900884207D0284A91680F239B04994373
:100B80001840014391600021626B206801F015FF5D
:100B90002249A26B206801F010FF0F202169C04399
:100BA00000291CD00122520591420AD121688A6A8B
:100BB000227F9200121FD206D20E9040226E104366
:100BC000886220684069616B4007400F88420BD102
:100BD000E665A06D80088000401CA0650FE02168DC
:100BE0008A6A02438A62ECE7A06D022188431021E1
:100BF0000843A065E06D01210843E0650127384600
:100C0000FEBD0000E8FFFF7F400D03005C010020F7
:100C10000102FEFF02FCFF1F0027014004FFFF0747
:100C20007047000010B58EB00446142107A8FFF7E6
:100C3000C6FA1C216846FFF7C2FA1B4920688842A1
:100C40002FD101200024800305940090684600F015
:100C50002DFB002801D0FFF76DFC1448026801212C
:100C600009050A430260006808400C900F484038AC
:100C7000416B012211434163406B07A910400C9066
:100C8000802007900320089005200994000700F0B9
:100C900063F9002203210C2000F0DEFA0C2000F0A2
:100CA000CFFA0EB010BD00000024014040100240F9
:100CB00070B50446006801F06DFE002802D00221E4
:100CC000084670BD25464035287D01280AD0012000
:100CD00028752046FFF71CFB01460020002903D0A1
:100CE0002875EDE7022070BDA26D094B1A40FF2365
:100CF00001331A43A265E06523681C221A60287537
:100D000020688268034B1A40121D8260D8E70000F9
:100D1000FEF1FFFFE8FFFF7FF0B5002808D0014695
:100D200020314A79022A05D00422C26300200871CA
:100D30000120F0BD026813680E24A3431360426CC7
:100D40001468FF2301339C4314600268146864082C
:100D5000640014600C4A5568066C1C24264001246B
:100D60002746B7403D435560826CC56C5560026DA7
:100D7000002A05D015689D431560826D406D426064
:100D80004C7100200871F0BD00000240F8B500244D
:100D9000024620325179022903D00421C163012483
:100DA0002DE001680B680E25AB430B6001680B68F2
:100DB0005B085B000B60416C0B68FF250135AB43A2
:100DC0000B6010494D68066C1C231E4001231F4612
:100DD000B7403D434D60816CC56C4D60016D00298D
:100DE00006D00E681D02AE430E60416D856D4D60EC
:100DF000537100211171816B002900D08847204672
:100E0000F8BD00000000024070B5044600F066F92D
:100E10000546601C02D004480078241800F05EF9F2
:100E2000401BA042FAD370BD50010020F8B51F4E00
:100E3000044630780F4601280AD001203070002087
:100E400070607D20C000FFF7B9FB002802D029E0C8
:100E50000220F8BD042161602268042A03D0491FE2
:100E60003960A56814E00846FFF766FB7D20C000E6
:100E7000FFF7A4FB16E029466068FFF767FB7D20BB
:100E8000C000FFF79BFB002801D03D6005E06D1C12
:100E9000E268A1688918A942EDD805494A69022388
:100EA0009A434A6100213170F8BD0000600D0020B6
:100EB00000200240054901204A69C3071A434A61DC
:100EC0004969002900DA0020704700000020024034
:100ED000F0B51FB4144C06462078154601280AD0F8
:100EE0000120207000277D20C0006760FFF766FBAF
:100EF000002803D010E0022005B0F0BD012E0DD077
:100F000029460198FFF740FB7D20C000FFF756FB04
:100F100006494A69B2434A612770EDE72A46039BB6
:100F20000198FFF723FBEFE7600D0020002002404F
:100F3000064900204A69002A07DA054A8A60054AFC
:100F40008A604969002900DA0120704700200240C8
:100F500023016745AB89EFCDF0B5002303249AE068
:100F60002A4601259D402A407ED00E79B607B60F4D
:100F7000012E01D0022E16D186682746B4465E00A7
:100F8000B646B7406646BE43B446CF687646B740DD
:100F90006646374387604668AE430D79ED06ED0F30
:100FA0009D40354345600D79ED43AD0708D0C568D8
:100FB0005F002646BE40B5438E68BE402E43C660E5
:100FC0000D79AD07AD0F022D0ED1DD08AD002D1846
:100FD000AC462D6A5E07F60E0F27B740BD430F697A
:100FE000B7402F4365462F6205685F002646BE4026
:100FF000B5430E79B607B60FBE402E4306604D6866
:10100000AD03AD0F46D09E08264DB6007519AC460F
:101010002D6E9E07F60E0F27B740BD4305273F07ED
:10102000B84201D100270FE01F4FB84201D101277C
:101030000AE01E4FB84201D1022705E01C4FB8421A
:1010400001D1032700E00527B7402F43154D664621
:1010500037662D684E689543F60200D51543114F4B
:101060003D607D68954300E014E04E68B60200D50F
:1010700015437D600B4D80356E684F689643BF0306
:1010800000D516436E602E684F689643FF0300D567
:1010900016432E605B1C0A681546DA4000D05FE7F5
:1010A000F0BD00000018024000040050000800508D
:1010B000000C00500069084000D0012070474269D0
:1010C00013460B401B0491430B4383617047002A76
:1010D00001D08161704781627047000001488068DB
:1010E000704700005001002070B504000FD0216847
:1010F0001548086021681548086003CC41602068E5
:10110000083C21688860FFF7E9FF05460CE00120F4
:1011100070BDFFF7E3FF401B312805D92068C06888
:10112000400701D0032070BD2068C0684007F0D19F
:1011300020680269E1688A4201D0016101E0044946
:101140000160002070BD0000CCCC000055550000AF
:10115000AAAA000002488168027889188160704755
:101160005001002010B50848002401688215114381
:101170000160032000F00AF8002801D0012401E0FA
:1011800000F040F8204610BD0020024000B50146A6
:1011900087B00022102000F05FF8102000F050F817
:1011A0001348C26B02210A43C263C06B084005901A
:1011B00004A9684600F0D6F900F0F0F940000D49A6
:1011C000FEF7CEFF0D490C4A0A600D4A401ECA6068
:1011D0004860002008618860084600F009FD00288A
:1011E00002D0012007B000BD044800F059FDF9E726
:1011F0000010024040420F0000040040140D002087
:10120000E703000008B50D480168012211430160A1
:1012100000681040009009484038C26B01040A433E
:10122000C263C06B0022084003210090481F00F0F9
:1012300013F80320400200F0F7FB08BD4010024005
:10124000002805DBC106C90E01208840014908605D
:101250007047000000E100E010B503F053FB10BD43
:1012600010B50F4C216803225202914301432160C3
:10127000C11FFF39FA390ED10A48062100684843D8
:101280000949FEF76DFF401C02E0002805D0401E12
:1012900061694905F9D4002010BD032010BD00008C
:1012A000007000405C01002040420F00F8B5044689
:1012B00000680026524D800358D551480027403819
:1012C000C06BC00009D44E484038C26B01040A43C9
:1012D000C263C06B0840012700904A48016882152C
:1012E00011430160FFF7FAFE009005E0FFF7F6FEFC
:1012F0000099401A022825D842480068C005F5D553
:10130000E8690321090208400FD0A16981420CD08D
:10131000E86903210902EA698843012109040A43B3
:10132000EA61EA698A43EA61E861C0070FD0FFF722
:10133000D5FE009008E0FFF7D1FE0099411A32482F
:10134000814201D9032609E0E8698007F3D5E869FD
:10135000032109028843A1690843E861002F05D0F1
:1013600027484038C16B02049143C1632078C0070D
:1013700005D068696168800880000843686120784A
:10138000800705D568690C218843A1680843686116
:101390002078800606D56869032109038843E1683F
:1013A000084368612088400411D56869616980003C
:1013B000800808436861012160698907884206D175
:1013C0000F484038C168012212041143C1602088CF
:1013D000000512D568690321890388432169084300
:1013E0006861012120698903884206D10448403898
:1013F000C168012212041143C1603046F8BD0000EB
:10140000401002400070004088130000F8B50F46FD
:10141000060043D04D4D28684007400FB84213D214
:101420002868C008C00038432860FFF757FE04460C
:1014300005E0FFF753FE011B4548814261D828684B
:101440004007400FB842F4D13068424C81070DD5B7
:10145000400704D5A068072109030843A060A068DD
:101460000F2109028843B1680843A0603078C007A3
:1014700032D0706801280AD002280BD000280FD083
:101480003449403103280ED0C969890704E0216836
:10149000890301E021688901002906DB0120F8BDEC
:1014A00021684905F8E7096AEFE7A168C908C9009A
:1014B0000143A160FFF712FE009006E0FFF70EFE69
:1014C0000099411A224881421BD8A068382108405F
:1014D0007168C9008842F1D128684007400FB842BE
:1014E00017D91A480168C908C90039430160FFF7D4
:1014F000F5FD054607E0FFF7F1FD411B1448814269
:1015000001D90320F8BD114800684007400FB842D8
:10151000F1D13078400706D5A06807210903884338
:10152000F1680843A06000F04DF8A1683C228909E9
:101530001140094A515CC906C90EC84007490860F4
:1015400007480068FFF722FEF8BD000000200240B7
:101550008813000000100240545800085C0100206D
:101560005401002010B5072202600A4A93685B0705
:101570005B0F436093680F242402234083609268CA
:1015800007231B031A40C260034800684007400F4E
:10159000086010BD001002400020024006480749C4
:1015A00000688968064A4904490F8900515CC906E8
:1015B000C90EC840704700005C01002000100240C6
:1015C0009458000810B5204CA068204A8006400FAF
:1015D00016D0A0688006410F501001290FD0A168D5
:1015E0008906490F022912D0A0688006400F0428FE
:1015F00023D0A0688006400F032821D0002010BD12
:10160000206801218004400F8140104612E0E1680B
:101610008B07E1689B0F4906490F491C032B00D03B
:101620001046FEF79DFDE1684904490E4843E16814
:10163000490F491CFEF794FD10BD0120C00310BDE9
:101640007D20000210BD0000001002400024F400C4
:10165000F8B504007ED020783827C007E94D00286F
:1016600046D0A868E96838408907890F102802D059
:1016700008280BD001E0032908D00120626800048B
:1016800082420AD129680143296015E02868800355
:101690002ED560680028DDD02AE0052301211B0437
:1016A00089049A422A6802D10A432A60EAE78243FF
:1016B0002A60286888432860606800280CD0FFF7FB
:1016C0000DFD064604E0FFF709FD801B642873D872
:1016D00028688003F7D50BE0FFF700FD064604E01D
:1016E000FFF7FCFC801B6428F1D828688003F7D43E
:1016F0002078800769D5A868E96838408A070721FB
:10170000920FC902102802D0002813D001E0022A4B
:1017100010D0E068002846D0286888432169084333
:1017200028602868FF21013108432860FFF7D6FCB4
:1017300006462CE02A68520502D5E268002A89D0C4
:101740006A687F231B029A4363691B021A436A601B
:10175000002800E08DE00ED1286888432169084305
:101760002860286801218004400F8140A648FEF7C8
:10177000F7FCA6490860A6480068FFF707FD0028A7
:1017800077D122E0FFF7AAFC801B02289FD82868A7
:101790004005F7D568687F2109028843616909021D
:1017A0000843686011E02968FF2001308143296007
:1017B000FFF794FC064605E098E0FFF78FFC801BDE
:1017C000022884D828684005F7D42078914E000775
:1017D0002ED5A8688006400F03280AD0A0690028EB
:1017E000306A16D0012108433062FFF777FC0746C4
:1017F0000BE0306A80071BD5A06900289FD017E056
:10180000FFF76CFCC01B022870D8306A8007F7D540
:101810000EE0400840003062FFF760FC074604E03D
:10182000FFF75CFCC01B022860D8306A8007F7D441
:10183000207840076CD5A86800278006400F042850
:1018400018D0E86BC00008D4E96B01200007014301
:10185000E963E96B0140012700916F480168C90500
:1018600019D40168821511430160FFF737FC00901D
:101870000DE083E0F06980074AD5A06800287DD09C
:1018800046E0FFF72BFC0099401A02282ED8624848
:101890000068C005F5D5A168012910D004200529EC
:1018A000F16911D049084900F161F1698143F161A1
:1018B000A068002816D0FFF711FC00900EE0F06938
:1018C00001210843F061F3E70143F161F7E7FFF716
:1018D00005FC0099411A5148814265D8F06980079A
:1018E000F5D50EE0FFF7FAFB009007E05CE0FFF7AC
:1018F000F5FB0099411A4948814255D8F0698007A3
:10190000F5D4002F04D0E96B012000078143E9637F
:10191000E069002873D0A9688906490F02294DD0D3
:10192000012636060228286805D0B0432860FFF754
:10193000D5FB04463AE0B0432860FFF7CFFB0746EB
:1019400004E0FFF7CBFBC01B02282DD828688001DC
:10195000F7D4616A206AA26A0843E16A120211435D
:101960000843216B0843E9682D4A11400843E860A9
:10197000286830432860E868012100E03DE009075D
:101980000843E860FFF7AAFB044604E0FFF7A6FB64
:10199000001B022808D828688001F7D52FE0FFF740
:1019A0009DFB001B022801D90320F8BD2868800197
:1019B000F5D4E8681B490840E86020E00128F4D02D
:1019C000E868226A8107890F914216D17021626A04
:1019D0000140914211D17F21A26A09020140120205
:1019E00091420AD11F214904E26A0140914204D187
:1019F000400F216B4007884201D00120F8BD002034
:101A0000F8BD0000001002400024F4005C0100203A
:101A10005401002040100240007000408813000074
:101A20008C80C11FFCFFFEEF03490A6803235B02A1
:101A30009A4302430A6070470000014070477047B4
:101A40007047000070B5034620331A7F012A4BD03F
:101A500001221A770325CA682D02AA438D680068FF
:101A60002A430125AD02AA434D6800242A430125DB
:101A7000ED02AA430D682A4301252D03AA430D69EF
:101A80002A4301256D03AA434D692A430125AD036D
:101A9000AA430D6B2A430F252D04AA430D8B2D0459
:101AA0002A43124DA84204D101263607B243CE691B
:101AB0003243A84214D10F252D05AA430D8D2D05C3
:101AC0002A4301252D06AA430D6A2A4301256D06E6
:101AD000AA434D6AC96A2A4301256D07AA430A43EE
:101AE00042641C77002070BD022070BD002C0140B4
:101AF000F0B5034620331A7F012A27D001221A7736
:101B000002225A7704686268A568114FBC4205D169
:101B100016460F22120596434A6832437026B24396
:101B20000E68164366600068B84205D0094A9042C4
:101B300002D0094A904204D1802289689543294302
:101B400081600120587700201877F0BD0220F0BD99
:101B5000002C0140000400400040014070B50546E3
:101B60002C4602204034002908D004290BD0082933
:101B70000ED0E279012A10D0012070BD2279012A0D
:101B8000FAD120710AE06279012AF5D1607105E08D
:101B9000A279012AF0D1A07100E0E0710422286846
:101BA00001F0B8FE2868416C0122D2031143416460
:101BB0000B4928680122884205D00A49884202D090
:101BC0000949884207D18168084B1940062905D088
:101BD000DB1F994202D0016811430160002070BDF3
:101BE000002C0140000400400040014007000100BB
:101BF00070B5040005D025462035687F002802D046
:101C000006E0012070BD00202877204600F016F87D
:101C100002206877211D206801F038FE012240343F
:101C20002272AA77EA7722706270A270E270227143
:101C30006271A271E2716A77002070BD08B5144A22
:101C400001681448914202D10268C1141AE0124A94
:101C5000914211D10F484038C26B10210A43C26330
:101C6000C06B00220840009003211120FFF7F4FA16
:101C70001120FFF7E5FA08BD084A9142FBD102683E
:101C8000012109040A43026000680840009008BD71
:101C9000002C014040100240001000400040014074
:101CA000014620314A7F012A01D0012070470222DB
:101CB0004A770168CB6801221343CB6000680B4967
:101CC000884205D00A49884202D00A49884207D191
:101CD0008168094B1940062905D0DB1F994202D0C3
:101CE000016811430160002070470000002C014092
:101CF000000400400040014007000100F8B505461F
:101D000004462035287F0026012817D001272F7789
:101D100002206877226890682F4B1840FF231B022F
:101D2000984390600868502838D00EDC20284FD0A7
:101D300006DC00284CD010281ED149E00220F8BD56
:101D4000302845D0402817D13AE060282ED070289E
:101D500018D001221203801A0FD090420CD1CB6808
:101D60004A688968206801F0E2FD206881680122E4
:101D700092031143816000E001266F7700202877ED
:101D80003046F8BDCB684A688968206801F0CFFD0D
:101D900021688868772210438860EEE7CA6849683E
:101DA000206801F047FF5021206806E0CA684968B2
:101DB000206801F050FF6021206801F0C3FDDCE7DE
:101DC000CA684968206801F035FF40212068F4E7BF
:101DD000226801461046F0E788FFCEFF70470000FA
:101DE00070B50446006801690025C94389070029C8
:101DF00015DBC168C943890711D4E91E01610120BF
:101E00002077206880698007204602D0FFF7E6FF30
:101E100004E000F0E1F8204600F09AF92577206808
:101E20000169C943490717D4C168C943490713D495
:101E30000421C94301610220207720688069800560
:101E4000800F204602D0FFF7C9FF04E000F0C4F87D
:101E5000204600F07DF9257720680169C94309070C
:101E600016D4C168C943090712D40821C9430161C6
:101E7000042020772068C0698007204602D0FFF741
:101E8000ADFF04E000F0A8F8204600F061F92577E6
:101E900020680169C943C90617D4C168C943C90686
:101EA00013D41021C9430161082020772068C0693C
:101EB0008005800F204602D0FFF790FF04E000F07D
:101EC0008BF8204600F044F9257720680169C94362
:101ED000C90708D1C168C943C90704D1891E016176
:101EE000204600F037F920680169C943090609D482
:101EF000C168C943090605D48021C9430161204650
:101F0000FFF79DFD20680169C943C90508D4C16870
:101F1000C943090604D4124901612046FFF78EFD2A
:101F200020680169C943490609D4C168C943490603
:101F300005D44021C9430161204600F041F92068E1
:101F40000169C943890609D4C168C943890605D412
:101F50002021C94301612046FFF772FD70BD0000DA
:101F6000FFFEFFFF30B587B0044614216846FEF738
:101F700026F92468144D0023144A02211448AC4267
:101F80000CD1546B0C435463526B02930A4005927C
:101F9000032252030393009201910FE00D4DAC42D6
:101FA00010D1546B0C435463526B01910A4005925B
:101FB0000122D20302930393009204210491694603
:101FC000FEF7CAFF07B030BD002C014000100240F0
:101FD00000040050004001407047F8B5044600205E
:101FE000264620360090307F0D4601280CD0012077
:101FF000082730770C2A48D008DC002A10D0042AA1
:102000001ED0082A06D130E00220F8BD102A52D096
:10201000142A60D001200090002030770098F8BD8D
:10202000206801F099FC206881693943816120684A
:102030008169042291438161206881692A6911E0E4
:10204000206801F0CFFC206881690122D20211438F
:1020500081612068816952109143816120688169A2
:102060002A69120211438161D6E7206801F0FCFC65
:102070002068C1693943C1612068C1690422914364
:10208000C1612068C1692A6912E0206801F030FD51
:102090002068C1690122D2021143C1612068C2696E
:1020A000012189028A43C2612068C1692A6912023A
:1020B0001143C161B0E7206801F054FD2068416D13
:1020C000394341652068426D04218A434265206896
:1020D000416D2A6912E0206801F076FD2068416DAB
:1020E0000122D202114341652068426D012189021B
:1020F0008A4342652068416D2A6912021143416595
:102100008AE770B5040005D025462035687F002891
:1021100002D006E0012070BD00202877204600F0A4
:1021200016F802206877211D206801F0AFFB01221C
:1021300040342272AA77EA7722706270A270E2704D
:1021400022716271A271E2716A77002070BD7047DE
:102150007047000070B5044600681349884201D1F9
:10216000FEF7F8FF1149206888421CD1104C642109
:10217000E088401C80B2E0800546FDF7F1FF0029B1
:1021800007D10C480168491C01600B480168491CD3
:1021900001600A48854206D30020E0802078FF28AD
:1021A00001D0401C207070BD0004004000100040B1
:1021B00008010020180100201C01002070170000F9
:1021C000704710B5014680310A78012A15D00122E6
:1021D0000A7024224A600268136814686408640064
:1021E0001460012252079343002242660068036094
:1021F000202048600A70104610BD022010BD70B546
:10220000044680308368202B2FD100290BD0002A70
:1022100009D00125A3682D03AB4206D12369002B09
:1022200003D1CB0701D0012070BD0378012B1CD056
:1022300001230370E366204602F020F9010003D178
:10224000E06E012802D00121084670BD20681022EE
:102250000262EFF31080012383F3108823681C6867
:1022600014431C6080F31088EEE7022070BD00006C
:1022700010B500680549884206D102F013FA04221D
:1022800003490448FFF7BBFF10BD000000440040B5
:1022900004010020F40B0020704770B50446054689
:1022A0008034207801281AD001202070242060601A
:1022B000286806680268520852000260286882682E
:1022C00007235B069A430A438260284601F0E0FC3C
:1022D00028680660202060600020207070BD022009
:1022E00070BD70B50446054680342078012819D0A9
:1022F0000120207024206060286806680268520867
:102300005200026028688268D200D2080A438260C4
:10231000284601F0BDFC286806602020606000208F
:10232000207070BD022070BD704770478C21095825
:10233000090702D50068C169406A7047F8B50368AB
:102340000446D96918689A68B24D0E462E40254653
:102350008035002E75D0B04EB04F16400740374341
:102360006ED0CF0706D0C70504D501271F62EB68E2
:102370003B43EB608B0708D5D30706D027680223C1
:102380003B62EB6804273B43EB604B0708D5D30760
:1023900006D0276804233B62EB6802273B43EB60CF
:1023A0000B0709D520230340334305D026680823B3
:1023B0003362EE681E43EE600B0509D5430107D575
:1023C00001232668DB023362EB6820263343EB608F
:1023D000EB68002B42D089060AD520210840C905A8
:1023E0000A40104304D0216F002901D020468847BD
:1023F000E86821688968490602D42821084232D059
:10240000204601F009FD21688868400627D5EFF3D2
:102410001080012282F310888B68402293438B60E6
:1024200080F31088E06F002819D07D498163E06F48
:10243000FEF7ACFC002811D0E06F816B0DE000E0EE
:1024400017E08E0615D5012720263F0706401740C6
:102450003E430ED0216FB1E020468847F8BD2046AC
:10246000FFF764FFF8BD2046FFF760FF0020E8603B
:10247000F8BDE66E012E7CD1CE067AD5C60678D59B
:1024800010221A62236898682646400640360028C3
:1024900047DAE16F086840680004000CE8D0B78BA9
:1024A0008742E5D9F08308680068800634D4EFF3EA
:1024B0001080012181F3108819681701B943196050
:1024C00080F31088EFF31080012181F310882168D8
:1024D0008B685B085B008B6080F31088EFF31080E3
:1024E000012181F3108821688B684027BB438B60F2
:1024F00080F310882020A8600020E066EFF31080B1
:10250000012181F3108821680B6893430B6080F3ED
:102510001088E06FFEF700FCB08BF18B401A81B29F
:1025200033E0B08BF18B401A81B2F08B00289FD042
:1025300000299DD0EFF31080012686F310881E68D5
:10254000FF272137BE431E6080F31088EFF3108011
:10255000012383F3108823689E682F4FFF433E407A
:102560009E6080F310882020A8600020E06620672D
:1025700000E00EE0EFF31080012383F3108823685E
:102580001D6895431D6080F310882046FFF770FE9C
:10259000F8BDCE0208D5560206D501200005186206
:1025A0002046FFF7C2FEF8BD0E060BD50127802698
:1025B000FF0506403A40164304D0616F002900D061
:1025C0004AE7F8BD4A0614D5420612D52046EFF375
:1025D0001081012282F310881C68402294431C6001
:1025E00081F31088202169600021416700F09AF989
:1025F000F8BD0A0205D5420003D52046FFF794FE38
:10260000F8BDC901FCD50028FADA2046FFF744FEE0
:10261000F8BD00000F0800000100001020010004B8
:10262000053E000870B5040005D025468035686871
:10263000002802D006E0012070BD0020287020464E
:1026400000F026F8242068602068016849084900E5
:102650000160204601F04AFE0128EDD0A06A002862
:1026600002D0204601F036FB206841680922D202E0
:1026700091434160206881682A22914381602068EB
:102680000168012211430160204601F089FB70BD01
:10269000F0B58DB0044614216846FDF790FD1C216D
:1026A00005A8FDF78CFD49492068494C0126002505
:1026B0000227884227D105A805960695FEF7F6FD64
:1026C000002801D0FDF736FF414840300268012163
:1026D00089030A430260006808400C90606B304335
:1026E0006063606B6946C007C00F0C900320400216
:1026F0000090052002950197049603950007FEF7C8
:102700002BFC0DB0F0BD3349884229D105A80597AF
:102710000795FEF7CBFD002801D0FDF70BFFE16B1D
:10272000012040040143E163E16B01400C91606BC7
:1027300030436063606B6946C007C00F0C900C208B
:102740000090052002950197049603950007FEF777
:1027500003FC002203211C20FEF77EFD1C2032E03A
:102760001D498842CDD1E16B012080040143E16322
:10277000E16B01400C91606B30436063606BC0079C
:10278000C00F0C90606B38436063606B042438406A
:102790000C90202000900520029569460197039532
:1027A00004940007FEF7D8FB029569460B48019791
:1027B000009603950494FEF7CFFB002203211D2011
:1027C000FEF74AFD1D20FEF73BFD9AE70038014069
:1027D0000010024000440040004800400004005047
:1027E00070B588231B58202B01D0022070BD002912
:1027F0000BD0002A09D0012483682403A34206D108
:102800000369002B03D1CB0701D0012070BD002349
:10281000C366046863681B020BD5EFF310830125C0
:1028200085F3108825680126B6063543256083F3B5
:10283000108801F023FE70BD10B50068024988427F
:1028400001D100F015FF10BD00480040FFB506465D
:1028500004468036706883B00D46202860D1002D74
:102860000CD00598002809D00120A16800038142FE
:1028700007D12069002804D1E80702D0012007B061
:10288000F0BD307801284BD0012030700020F0607E
:1028900021207060FEF722FC019027464037059802
:1028A000B8820598F8820120A1680003814202D114
:1028B0002069002804D0029500250020307015E022
:1028C00000200290F9E700228021204601F070FEEE
:1028D000002818D10298002817D021680078886253
:1028E0000298401C0290F88A401EF882F88A019BE8
:1028F000002806980090E6D100224021204601F0F1
:1029000057FE002808D00320B9E728882168C005B1
:10291000C00D8862AD1CE6E7202070600020AEE7A5
:102920000220ACE77047FEE74B2636010127064C34
:10293000064DFF03304602F0C7FA0520394600076E
:10294000FEF7BDFB2C60F5E7AAAA000000300040AE
:1029500070B50125084E6D0229463046FEF7AAFBE8
:10296000012800D1012429463046FEF7A3FB0028A8
:1029700000D10024204670BD0004005010B5012293
:102980000520D1030007FEF7A2FB10BD8068C00739
:10299000C00F704780684007C00F7047C0680005CF
:1029A000800F01D000207047012070470268072384
:1029B0009B059A430A430260704710B5436904249B
:1029C000214007248C40A3438A401343436110BD38
:1029D0007CB50023AA24224A012802D0002826D050
:1029E0002FE05A25684605701568457002258570E8
:1029F000C1701068012804D1252906D017206D4622
:102A000028711068022807D00BE04220694608713F
:102A10001068022802D004E0262906D09F206946CB
:102A200008716846437184710BE0CA20F7E75B25A3
:102A3000684605701268427001228270C17003718D
:102A40004471012001F01AF9FF232D330722694652
:102A50000448FFF7FBFE002001F010F97CBD0000E8
:102A600038010020840C00200EB55A2069460870F9
:102A7000154800684870052088702120C8701348E8
:102A8000002200780871002048710320887101201D
:102A9000C87107216844FDF73BFD69460872AA200A
:102AA00048720020401CC0B20A28FBD3012001F06C
:102AB000E5F8FF232D330A2269460548FFF7C6FED5
:102AC000002001F0DBF80EBD380100204D01002090
:102AD000840C0020F8B53226174C184F002807D078
:102AE0000025012807D0022808D003281DD108E0BE
:102AF0006680268019E02580668016E02680658045
:102B000013E0258066803868456338688663C8208E
:102B1000FEF77AF9268065803868466338688563F1
:102B2000C820FEF771F965802580396820884863E0
:102B3000396860888863F8BD000000206C0A0020B6
:102B40003EB500241848009401941649029401608F
:102B50008460C46009050461416004214161047618
:102B600044768476446201218462C1610146203149
:102B70000C730463446384630C77C464FDF740FF03
:102B8000002801D0FDF7D6FC084800900194694662
:102B900002940548FDF774FD002801D0FDF7CAFC3A
:102BA0003EBD000000240140F80900208000001C08
:102BB00010B59AB014221D496846FDF7E7FA0021C6
:102BC000684602F08EF91A4C1849606114221431DB
:102BD00005A8FDF7DBFA002105A802F082F91349E8
:102BE000A061142228310AA8FDF7D0FA00210AA812
:102BF00002F077F90D49E06114223C310FA8FDF78E
:102C0000C5FA00210FA802F06CF9084920621422CD
:102C1000503114A8FDF7BAFA002114A802F061F9A6
:102C2000606202F065FC1AB010BD0000C8570008D1
:102C300010010020F0B587B014216846FDF7BFFAF7
:102C40002548426B20210A434263426B0A400592A9
:102C5000416B012421434163416B21400591416B4C
:102C6000022631434163406B224630400590314695
:102C70001A48FEF72CFAE703052000223946000720
:102C8000FEF725FA002221021448FEF720FA00255B
:102C90006A4670C2052069460007FEF75DF9FF200D
:102CA00003306A4671C269460C48FEF755F90320A5
:102CB000400200900195694602950848FEF74CF9DC
:102CC0000520019469460007009702950394FEF7DA
:102CD00043F907B0F0BD00000010024000040050AE
:102CE00010B5094807490160042141600749C160E6
:102CF0007D2109018160FEF7F7F9002801D0FDF779
:102D000019FC10BD003000405C0A0020FF0F0000DD
:102D100010B59CB00024149415941694179418942C
:102D200019941C210DA81A94FDF749FA342168461C
:102D3000FDF745FA2B482A4901603F218460416034
:102D40000461446128498461C160FEF751FF002895
:102D500001D0FDF7EFFB01200003149014A92148D6
:102D6000FEF7CCFF002801D0FDF7E4FB1D48FFF77C
:102D7000C8F9002801D0FDF7DDFB189418A91948FF
:102D80001A94FEF7B5FE002801D0FDF7D3FB6020B2
:102D900012940E940D900F941094119400220DA98A
:102DA00013941048FFF719F9002801D0FDF7C2FB72
:102DB000012000944003019402940590039404942C
:102DC000069469460C940748FEF73CFE002801D0A3
:102DD000FDF7B0FB0348FFF7C5F81CB010BD0000BD
:102DE00000400140040B0020E703000030B59BB019
:102DF0000024054614941594169417941894199465
:102E00001C210DA81A94FDF7DAF934216846FDF764
:102E1000D6F92B49294808603F200A1D6D1E31C292
:102E20000C614C6108468C61FEF7E2FE002801D07F
:102E3000FDF780FB01200003149014A92048FEF741
:102E40005DFF002801D0FDF775FB1D48FFF759F91C
:102E5000002801D0FDF76EFB189418A918481A94A1
:102E6000FEF746FE002801D0FDF764FB60201294B7
:102E70000E940D900F941094119400220DA91394A8
:102E80000F48FFF7AAF8002801D0FDF753FB0120F7
:102E900000944003019402940590039404940694D2
:102EA00069460C940648FEF7CDFD002801D0FDF7D9
:102EB00041FB0348FFF756F81BB030BD004001400E
:102EC000040B002010B59CB0002419941A94179498
:102ED0001894149415941C210DA81694FDF76FF9FD
:102EE00034216846FDF76BF93348324901603349B4
:102EF00084604160046163214461C160802181611B
:102F0000FEF776FE002801D0FDF714FB0120000338
:102F1000179017A92848FEF7F1FE002801D0FDF709
:102F200009FB2548FFF7EDF8002801D0FDF702FB6B
:102F30001494159414A920481694FEF7D9FD00287E
:102F400001D0FDF7F7FA602012940E940D900F94C3
:102F50001094119400220DA913941748FFF73DF81F
:102F6000002801D0FDF7E6FA04220DA91248FFF768
:102F700034F8002801D0FDF7DDFA01200094400369
:102F8000059001940294049400030394069407941A
:102F9000099008940A940B9469460C940648FEF72D
:102FA00051FD002801D0FDF7C5FA0348FEF7DAFF0E
:102FB0001CB010BD002C01406C0A0020FF1800005E
:102FC0003EB500240F48009401940D49029401601D
:102FD0003F21846041600C498461C160FEF708FEB6
:102FE000002801D0FDF7A6FA00946946054802942E
:102FF000FEF77EFD002801D0FDF79CFA3EBD0000E3
:1030000000100040B80A00200F27000010B5184833
:1030100016490160E1214902416000218160C160DF
:1030200001618161C16101620C2241624261816280
:10303000FFF7F8FA002801D0FDF77CFA00210C48D0
:10304000FFF74FF9002801D0FDF774FA0021084876
:10305000FFF723F9002801D0FDF76CFA0448FFF7C9
:10306000B0F8002801D0FDF765FA10BD0038014026
:10307000640B002010B51848164901604B21C901A6
:10308000416000218160C16001618161C1610162B3
:103090000C22416242618162FFF7C4FA002801D02C
:1030A000FDF748FA00210C48FFF71BF9002801D072
:1030B000FDF740FA00210848FFF7EFF8002801D09B
:1030C000FDF738FA0448FFF77CF8002801D0FDF737
:1030D00031FA10BD00440040F40B002010B50D483B
:1030E0000B4901604B214901416000218160C160B1
:1030F00001618161C16101620C22416242618162B0
:10310000FFF790FA002801D0FDF714FA10BD000077
:1031100000480040840C0020984F00250126984C60
:10312000FFF716FC00283BD13878012808D13D7004
:10313000E560256165712570A57192A001F0C4FB61
:10314000E079012803D02079022870D08DE000F0CA
:10315000F7F90A2001F0B8FE6078012803D1657004
:103160002521FFF735FC607802280AD02079022853
:103170001AD001281AD0032818D0607901281DD050
:1031800028E0FDF795F965700220207183480078EA
:10319000012806D00020FFF79DFC81A001F094FBE0
:1031A0007BE08BA001F090FB012000E00220FFF704
:1031B00091FCFF20F53001F087FE6EE02069411C94
:1031C00021617D21C900884212D9256165718CA0D9
:1031D00001F07AFB607900280AD100F0B1F90A20E9
:1031E00001F072FE6D480078012808D0894805700A
:1031F000E068782822DAE078012819D01AE02078EF
:103200000128F5D183480178491CC9B2017096297B
:10321000EED9057080A001F057FB0120FFF75AFCA2
:1032200002202071FF20F53001F04EFEE0E710E0B3
:10323000E570E560A079012806D02EE082A001F0BB
:1032400043FB72B601F080FBE560606A02F0FCF8B7
:1032500023E082A001F038FB0220FFF73BFC0320B3
:1032600020717D20C00001F02FFE2079012801D0BF
:10327000032812D17FA001F027FBFDF719F90020E8
:10328000FFF728FC2571E560884801210670A571CB
:103290000846FFF79DFB66712561FFF759FB012882
:1032A00067D1E5603878012802D13D70A67126709B
:1032B000E079012803D02079012837D040E06078F8
:1032C000022804D1657026210120FFF781FB607878
:1032D000012802D0207801280CD0FDF7E9F86570AC
:1032E00026710220FFF7F6FBFF20F53001F0ECFD20
:1032F0006FA03CE02079012807D0032805D00228E0
:1033000005D0A07901280AD033E0022000E0012096
:10331000FFF7E0FBFF20F53001F0D6FD29E0606A01
:1033200002F0E6F80020FDF79DF822E068A001F029
:10333000CBFA0220FFF7CEFBFF20F53001F0C4FDF1
:103340002079022815D168A001F0BEFA0020FDF70F
:1033500089F80020FFF7BEFB544805702571A6715F
:10336000FDF7A6F826210120FFF732FB68A001F047
:10337000ABFA642001F0A8FDD2E600000A010020AB
:1033800010010020B3F5B4CEC9CFB5E7B1EABCC790
:10339000D2D1BDB5CBF80D0A0000000040010020DD
:1033A000B9D8B1D5D7B4CCACCFC2CAD5B5BDC9FD9B
:1033B000C6F0D6B8C1EEBCECB2E2B5BDB3B5C1BE85
:1033C000A3ACB3B5C1BED4DDCDA30D0A000000008F
:1033D000B9D8B1D5D7B4CCACCFC2CAD5B5BDC9FD6B
:1033E000C6F0D6B8C1EEC3BBD3D0B3B5C1BEA3AC93
:1033F000BFD8D6C6B5E7BBFAC9FDC6F00D0A0000B6
:1034000035B7D6D6D3BCC6CAB1CAB1BCE4B5BD0DBA
:103410000A0000004C010020D4DAB9D8B1D5D7B4E5
:10342000CCACCFC2BCECB2E2B5BDB3B5C1BEC0EB53
:10343000BFAA31B7D6D6D3CAB1BCE4B5BDC9FDC6A3
:10344000F0B5D8CBF80D0A0032B7D6D6D3CDA8D177
:10345000B6D2ECB3A3B8B4CEBB0D0A00D6B4D0D06C
:10346000C9CFC9FDC3FCC1EED3F6B5BDD7E8D7AA15
:103470000D0A0000D6B4D0D0CFC2BDB5C3FCC1EE9A
:10348000D3F6B5BDD7E8D7AABBF2D5DFC9CFC9FD02
:10349000D3F6B5BDD7E8D7AAA3ACC4ACC8CFB5D8CE
:1034A000CBF8B9E9CEBB0D0A000000004D010020A9
:1034B000BFAAC6F4D7B4CCACCAD5B5BDCFC2BDB5D2
:1034C000D6B8C1EECFC2BDB5B5E7BBFA0D0A000054
:1034D000D6B4D0D0CFC2BDB5D6B8C1EED3F6B5BD47
:1034E000D7E8D7AA0D0A0000D6B4D0D0C9CFC9FDFD
:1034F000D6B8C1EED3F6B5BDD7E8D7AAC4ACC8CF0D
:10350000B5E7BBFABFAAC6F4B9E9CEBB0D0A000005
:10351000BFAAC6F4D7B4CCACC9FDCBF8CBF8D6B8AB
:10352000C1EECDEAB3C9C9CFB1A80D0A00000000B1
:10353000FEE710B5FFF722FAFCF7BAFF10BD000056
:1035400008B506A000680090054B012269460548B1
:10355000FFF77CF9C820FDF757FC08BDA00000006C
:10356000FFFF0000F40B0020F0B50023194F0120ED
:103570008446BC88184A19461846D55C552D22D178
:10358000164ED5186D783668B5421CD16546002DAB
:1035900002D000218C4619468B1D9C4212D3002478
:1035A0000D4D0120234614355E18965DEE545B1CCC
:1035B000DBB2062BF8D300231D46D5545B1CDBB2CF
:1035C000142BFAD314235B1CDBB2142BD5D3BC8091
:1035D000F0BD000008010020D809002038010020BB
:1035E0001CB55A20694608700D4802684A700122CD
:1035F0008A700722CA700068087100204871AA20EA
:103600008871012000F03AFBFF232D330722694621
:103610000448FFF71BF9002000F030FB1CBD000040
:1036200038010020840C00201CB55A20694608701F
:103630000D4802684A7001228A700A22CA70007915
:10364000087100204871AA208871012000F016FB43
:10365000FF232D33072269460448FFF7F7F80020BF
:1036600000F00CFB1CBD000038010020840C002081
:1036700010B50A480A4B818842785A54491C89B2CD
:103680008180142901D30021818004490122491C31
:103690000448FFF7A5F80028F7D110BD0801002065
:1036A000D8090020840C002070B5002307E00468CE
:1036B0004568DE008E195B1C30C69BB20830934211
:1036C000F5D370BDF7B584B0002001901F20049998
:1036D000C0060C18012040041546844261D2FDF753
:1036E00027FCE00A00906005060EFF200130841BD5
:1036F000A54200D82C462C4F0098FF22C102012081
:10370000C0060818013228490290FFF7CDFF0020BB
:1037100009E03118C90079180A684968D2430A4398
:1037200003D1401C80B2A042F3D3A04233D21E4842
:10373000022110380160009981600121C16001A956
:10374000FDF774FB002009E00599C2008A1883196F
:10375000DB00FB1806CA06C3401C80B2A042F3D3AC
:10376000FF2201321049029800F020F8A54216D03D
:1037700000980026401C00900599E0004118059132
:10378000049940180490281BFF2485B20134A542F7
:10379000B2D82C46B0E7E20805990498E4E7FDF7B3
:1037A00089FB07B0F0BD0000D8010020F8B516462F
:1037B0000F460546002409E0E00038180CC82946E9
:1037C0000120FDF785FB641CA4B20835B442F3D395
:1037D000F8BD704710B5FCF78DFC044601F040FFC2
:1037E000002803D001200349000748602046FCF769
:1037F00085FC10BD00ED00E030B591B03421684685
:10380000FCF7DDFC002401200D940E940F9440027F
:103810001094FDF725FD092000900120000401907F
:10382000012006900320089010200A9040030225F2
:103830000B90079500030C9009946846FDF708FF6C
:10384000002801D072B6FEE707200D90012080030A
:1038500010900E950F9402210DA8FDF7D7FD0028BA
:1038600001D072B6FEE711B030BD704710B5024806
:10387000FEF7B6FA10BD0000140D002010B5024886
:10388000FEF7AEFA10BD0000B80A0020F0B50268DD
:103890001A4B1B4C984201D0A04203D17025AA4379
:1038A0004D682A43174D184E184F98420AD0A0422F
:1038B00008D0174CA04205D0A84203D0B04201D096
:1038C000B84205D11446032212029443CA68224327
:1038D0008024A2434C69224302608A68C2620A685B
:1038E0008262984205D0A84203D0B04201D0B842CB
:1038F00001D10969016301214161F0BD002C014042
:1039000000040040004001400044014000480140E4
:103910000020004010B5CB06DB0E0421046A99405C
:103920008C430462016A9A401143016210BD30B5B4
:103930008468FF252D021B021343AC430B43234332
:10394000836030BD8268034B1A400A4307210A4353
:10395000826070478FFFCFFFF0B5026A52085200B5
:103960000262056A43688269194C1B4E2240920824
:103970000C6892001443022295438A682A43154D2D
:10398000A84207D0B04205D0144FB84202D0144F1D
:10399000B84206D10827BA43CF6817430422974399
:1039A0003A46A84207D0B04205D00C4DA84202D0FA
:1039B0000B4DA84206D103252D02AB434D691D4393
:1039C0008B692B4343608461496841630262F0BDA7
:1039D0008FFFFEFF002C01400040014000440140E9
:1039E0000048014070B5026A10239A430262046ADB
:1039F00043688269174D2A4003252D02AA430D68AA
:103A00002D021543202294438A6812012243124C4E
:103A1000A04207D18024A243CC684026240122433F
:103A2000B24308E00D4CA04205D00D4CA04202D09C
:103A30000C4CA04208D10324A402A3434C69A40067
:103A40001C438B699B002343436085614968816304
:103A5000026270BDFF8FFFFE002C0140004001405C
:103A6000004401400048014070B5026AFF23013361
:103A70009A430262046A4368C269184D2A40920858
:103A80000D68920015430122520294438A68120283
:103A90002243134CA04208D11446CA68C614B4434A
:103AA000120222430415A24308E00E4CA04205D0A6
:103AB0000D4CA04202D00D4CA04208D10324240397
:103AC000A3434C6924011C438B691B0123434360BE
:103AD000C5614968C163026270BD00008FFFFEFFCF
:103AE000002C0140004001400044014000480140DA
:103AF00030B5026A01231B039A430262046A4368D9
:103B0000C269134D2A4003252D02AA430D682D02D8
:103B100015430122520394438A68120322430D4C39
:103B2000A04208D00C4CA04205D00C4CA04202D0C0
:103B30000B4CA04205D10124A403A3434C69A4016A
:103B400023434360C56149680164026230BD0000DF
:103B5000FF8FFFFE002C0140004001400044014067
:103B60000048014070B5026A01263604B243026281
:103B7000046A4268436D0F4D2B400D681D4373006E
:103B80009C430B891B0423430B4CA04208D00B4CD5
:103B9000A04205D00A4CA04202D00A4CA04203D158
:103BA0004C69B243240222434260456549688165FD
:103BB000036270BD8FFFFEFF002C014000400140FA
:103BC000004401400048014030B5026A01231B0552
:103BD0009A430262046A4268436D114D2B400D689E
:103BE0002D021D4301235B059C430B891B052343C9
:103BF0000C4CA04208D00C4CA04205D00B4CA0426B
:103C000002D00B4CA04205D10124A404A2434C696C
:103C1000A4022243426045654968C165036230BD24
:103C2000FF8FFFFE002C0140004001400044014096
:103C30000048014030B5036A046A64086400046205
:103C40008469F025AC43120122430A24A3430B43A9
:103C50008261036230BD30B5036A1024A34303625E
:103C60008469036A0F252D031203AC432243A02469
:103C7000A343090119438261016230BD10B50246B8
:103C8000FF2101310148FDF722FA10BD0004005068
:103C9000F8B50446416E4034002915D000688168AB
:103CA000806809014D0F0A4E400F3746315C083FCE
:103CB000385CC000FCF754FA6085785D715DC00027
:103CC000FCF74EFA2085F8BD01206085FAE7000078
:103CD0004C58000810B5018DC90707D001684A6823
:103CE00001235B049A43C36A1A434A60018D890722
:103CF00007D501684A6801231B049A43036B1A43E2
:103D00004A60018D490707D501684A6801239B0471
:103D10009A43436B1A434A60018D090707D501682E
:103D20004A680123DB039A43836B1A434A60018D7F
:103D3000C90607D50268916801231B039943C36B29
:103D400019439160018D890607D501688A680123AE
:103D50005B039A43036C1A438A60018D490612D5AE
:103D600003685A6801210905446C8A4322435A605A
:103D7000426C8A4207D10268516803235B0599436C
:103D8000836C19435160018D090607D501684A68A3
:103D90000123DB04C06C9A4302434A6010BD00005B
:103DA000FEB50546002680350446EE60FDF796F91F
:103DB000019020680068124F000709D50121009783
:103DC000002249052046019B00F0F2FB00280DD19E
:103DD0002068006840070BD5012100970022890563
:103DE0002046019B00F0E4FB002801D00320FEBD2B
:103DF00020206860A860E6662E700020FEBD0000EE
:103E0000FFFFFF0110B5806A002201464031CA83DE
:103E1000CA82FEF78BFA10BD10B5EFF310810122B4
:103E200082F3108802681368FF242134A3431360CF
:103E300081F31088EFF31081012282F31088026869
:103E400093680D4C2340936081F31088C16E012963
:103E50000BD1EFF31081012282F3108802681368FE
:103E60001024A343136081F31088202288210A5074
:103E70000021C166016710BDFEFFFFEF70B501466E
:103E80004031034680330C8C9D680268222D04D09B
:103E9000906908210843906170BD526A856D224087
:103EA0002A80826D921C8265CA8B521ECA83CA8B7D
:103EB000002AF1D1EFF31082012484F31088046802
:103EC0002568FF262136B543256082F31088EFF37D
:103ED0001082012484F310880468A5686D086D00C1
:103EE000A56082F3108820229A6000220267C36EC8
:103EF000012B02D0FEF7A0FC70BDC266EFF310826A
:103F0000012383F310880468256810239D432560EE
:103F100082F310880268D469E443E40600D4136293
:103F2000898BFEF7A5F970BDF0B50546044640350E
:103F300089B0288C02902168CE690868069088684C
:103F400004902046803000908068222805D08A693D
:103F5000082002438A6109B0F0BD2F8D68E0206817
:103F6000406A029AA16D10400880A06D801CA06577
:103F7000E88B401EE8832068C669710731D0F107DD
:103F800009D00699C90506D5012101620098C068CB
:103F900008430099C860B0070BD50498C00708D043
:103FA0002168022008620098C06804210843009933
:103FB000C86070070BD50498C00708D0216804209A
:103FC00008620098C068022108430099C860009800
:103FD000C068002805D02046FEF7A8F90099002007
:103FE000C860E88B002823D1EFF31080012181F312
:103FF000108821680A68FF2301339A430A6080F31E
:104000001088EFF31080012181F3108821688A68FD
:10401000264B1A408A6080F3108800982021816026
:1040200000202067E16E012928D02046FEF704FC1D
:10403000002F01D0B00692D4E88B00288BD0298DB8
:10404000814288D9EFF31080012181F31088216823
:104050008A6801231B079A438A6080F310881448FA
:10406000EFF310812067012080F310882068026838
:1040700020231A43026081F310886CE7E066EFF3B7
:104080001080012181F310882268136810218B436E
:10409000136080F310882068C269D243D20600D42E
:1040A0000162A98B2046FEF7E3F8C1E7FEFFFFEFB0
:1040B0007D3E000870B501464031034680330C8CCC
:1040C0009D680268222D04D0906908210843906100
:1040D00070BD526A2240846D2270826D521C8265CE
:1040E000CA8B521ECA83CA8B002AF1D1EFF3108209
:1040F000012484F3108804682568FF262136B5431F
:10410000256082F31088EFF31082012484F3108875
:104110000468A5686D086D00A56082F310882022F0
:104120009A6000220267C36E012B02D0FEF784FB67
:1041300070BDC266EFF31082012383F31088046818
:10414000256810239D43256082F310880268D46996
:10415000E443E40600D41362898BFEF789F870BD4E
:10416000F0B505460446403589B0288C0190216899
:10417000CE690868069088680490204680300290D6
:104180008068222805D0886908221043886109B018
:10419000F0BD2F8D68E02068406A01990840A16D4C
:1041A0000870A06D401CA065E88B401EE883206865
:1041B000C669710731D0F10709D00699C90506D53E
:1041C000012101620298C06808430299C860B007E3
:1041D0000BD50498C00708D0216802200862029815
:1041E000C068042108430299C86070070BD5049881
:1041F000C00708D02168042008620298C068022124
:1042000008430299C8600298C068002805D020467B
:10421000FEF78CF802990020C860E88B002823D1B3
:10422000EFF31080012181F3108821680A68FF23D1
:1042300001339A430A6080F31088EFF31080012164
:1042400081F3108821688A68264B1A408A6080F3BF
:10425000108802992020886000202067E16E0129E3
:1042600028D02046FEF7E8FA002F01D0B00692D4FD
:10427000E88B00288BD0298D814288D9EFF31080FC
:10428000012181F3108821688A6801231B079A4362
:104290008A6080F3108814482067EFF310800121B2
:1042A00081F3108821680B68202213430B6080F390
:1042B00010886CE7E066EFF31080012181F310882D
:1042C0002268136810218B43136080F310882068E4
:1042D000C269D243D20600D40162A98B2046FDF701
:1042E000C7FFC1E7FEFFFFEFB5400008F8B5044681
:1042F00080682169E26908436169002511432268E9
:1043000008431168534B1940014311602168486804
:10431000032212039043E26810434860A169206AB7
:104320002268084391684C4B194001439160206812
:10433000C16A626A090909011143C162474A2068DA
:10434000474990420AD148698007800F20D0012850
:1043500014D0022810D003281CD111E0414A904209
:1043600010D148690C21084012D0042806D0082832
:1043700002D00C280ED103E002210CE004210AE057
:10438000082108E03849884202D03849884201D1E2
:10439000002100E010210122E369D2033448354EA8
:1043A000354F934227D1002906D002290BD004298A
:1043B00005D008293DD11CE0FDF7F0F801E0FDF73C
:1043C00001F900283CD0616A4900715AFBF7C8FE28
:1043D000616840004A088018FBF7C2FE01461039A8
:1043E000B94226D82449491C01400007400F084320
:1043F00024E01046E7E7002906D002290BD0042963
:1044000005D0082915D116E0FDF7C8F801E0FDF741
:10441000D9F8002814D0616A4900715AFBF7A0FE50
:1044200061684A088018FBF79BFE01461039B942C3
:1044300003D9012504E01046EDE780B22168C86089
:1044400020460121403041850185002020676067BA
:104450002846F8BDF369FFCFFFF4FF110038014093
:10446000401002400044004000480040004C004022
:104470000024F4002C580008EFFF0000F0B581651F
:10448000014640318A83CA8300230367012584687B
:104490002D03FF26AC4204D10469002C13D13F4CFC
:1044A0000AE07F27002C09D001263607B4420CD140
:1044B0000469002C05D03F240C8407E00469002C1B
:1044C00001D00F8402E00E8400E00B8404468034A7
:1044D000E3602226A660EFF31086B446012686F339
:1044E00010880668B768B646012637437646B76037
:1044F000664686F310880127466E7F07BE4229D1A3
:10450000098D914226D88168A94202D1016900290A
:104510001ED0234901672370016900290CD0EFF3F5
:104520001081012282F3108802681368FF2401348D
:104530002343136081F31088EFF31081012282F38B
:1045400010880068826801231B071A43826021E0FB
:104550001449DFE78168A94202D1016900290FD01F
:1045600011490167237001690029EFF3108109D017
:10457000012282F3108800680268FF23213307E0DC
:104580000A49EEE7012282F31088006802682023BE
:104590001A43026081F310880020F0BDFF01000083
:1045A00061410008293F0008B54000087D3E000831
:1045B000FFB581B005461746044680350A9E54E093
:1045C000701C52D0FCF78AFD0499401AB0422FD8D3
:1045D000002E2DD020680168490746D5C069C04328
:1045E000000542D401202168C0020862EFF3108068
:1045F000012181F3108821680B68FF22A1329343C7
:104600000B6080F31088EFF31080012181F3108894
:1046100021688A68520852008A6080F3108820203E
:104620006860A860E86000202870032005B0F0BD35
:10463000EFF31080012181F3108821680A68FF23BD
:10464000A1339A430A6080F31088EFF310800121B0
:1046500081F3108821688A68520852008A6080F3CA
:10466000108820206860A860DDE72068C169029892
:10467000884304D00020B842A2D00020D6E7012011
:10468000F9E7000010B50248FDF758FE10BD000024
:10469000F40B002010B50248FDF750FE10BD0000DD
:1046A000840C0020114A12490020135C0B54401C5A
:1046B000C0B20428F9D30878002805D14A78002A26
:1046C00002D18A78002A0FD04B78000218438978EB
:1046D000074A00020843921E06499060884201D9A9
:1046E000012000E00020107070470000040100204D
:1046F00042010020671E0600464F01260025464C59
:10470000FEF732FF002858D04448C078092847D027
:1047100007DCC01E030000F0E7F806181E502A3719
:10472000415021281DD004DC0A283BD00B2844D15D
:104730004CE0252802D026283FD102E0667038A040
:1047400039E00220607039A035E003210120FEF736
:104750003FF939A02FE004210120FEF739F939A0F3
:1047600029E0A670E670FEF77FF939A023E0FBF799
:1047700051FE3C48284940782831086001223A48D7
:10478000FEF7A0FF39A016E0234901222831364860
:10479000FEF78AFFFEF724FF38A00CE03BA00AE0FA
:1047A0003EA008E01C49012228312F48FEF77CFF7B
:1047B000FEF73AFF3CA000F087F838780A2817D9AE
:1047C0003D483D700078012806D009E03BA000F08C
:1047D0007BF872B600F0B8F825210120FEF7F8F852
:1047E00035480078002803D126210120FEF7F0F893
:1047F000A068FF212D31884206DAA078012805D172
:10480000A5702670A56001E0A5602570C82000F0A5
:104810005BFB75E70801002010010020EC09002077
:10482000BDB5CBF8D6B8C1EE0D0A0000C9FDCBF876
:10483000D6B8C1EE0D0A0000D0DDC3DFD6B8C1EE98
:104840000D0A0000BBBDD0D1D6B8C1EE0D0A0000E4
:10485000B2E9D1AFB5D8CBF8D7B4CCACD6B8C1EEAD
:104860000D0A0000500B002000740008D0B4B5D829
:10487000D6B7D6B8C1EE0D0A00000000B6C1B5D853
:10488000D6B7D6B8C1EE0D0A00000000B2A8CCD849
:10489000C2CAC9E8D6C30D0A00000000B1A8BEAF65
:1048A000D6B8C1EE0D0A0000B5D8CBF8B0E6B1BE5F
:1048B000B6C1C8A10D0A00004D010020B8B4CEBB9E
:1048C000D6B8C1EE0D0A00000FB410B503A9044B11
:1048D000044A029800F056F810BC08BC04B018470F
:1048E000F94D0008C001002030B47446641E2578DC
:1048F000641CAB4200D21D46635D5B00E31830BC14
:10490000184700008307FF22DB0E9A408907090E33
:104910009940002808DB830809489B001B18186889
:1049200090430843186070470007000F0838830859
:1049300004489B001B18D86990430843D86170470E
:1049400000E400E000ED00E0BFF34F8F04490348AE
:10495000C860BFF34F8F00BFFDE700000400FA05F9
:1049600000ED00E002E008C8121F08C1002AFAD1D9
:1049700070477047002001E001C1121F002AFBD1DF
:1049800070470000FFB591B00F460546002606E0CF
:1049900025280AD0149A139990476D1C761C287804
:1049A0000028F5D1304615B0F0BD00240094012157
:1049B000F34A029400E004436D1C2B780846203B28
:1049C00098401042F7D128782A280ED00221287862
:1049D0000246303A092A15D8009A0A235A43303A37
:1049E00080180C436D1C0090F1E701CF0090002867
:1049F00005DA012040030443009840420090022061
:104A000004436D1C28782E2815D1042004436878AF
:104A10006D1C2A280AD101CF6D1C02900BE002996F
:104A20000A225143303940186D1C02902878014603
:104A300030390929F3D928786C2810D006DC4C28A5
:104A40001AD068280ED06A2817D104E0742813D031
:104A50007A2812D110E00120400504430CE0012126
:104A6000090501E0032109050C436978814203D15E
:104A70000120000524186D1C6D1C287803906E28F9
:104A80001ED00CDC632831D004DC00288AD05828E2
:104A900011D1B2E064287BD069280CD178E073286A
:104AA0002DD004DC6F2870D0702804D1A7E07528C1
:104AB0006CD078286BD0149A13999047761C62E0DA
:104AC0006002400F022807D003280AD00428386863
:104AD0000AD006603F1D56E03868F1170660416055
:104AE000F8E738680680F5E70670F3E73878694636
:104AF00008740020487404A80390012003E038687B
:104B000003900020C0433F1D61070FD5002101E045
:104B10000199491C029A0191914213DA8142F7DB13
:104B2000019A0399895C0029F2D10BE0002101E090
:104B30000199491C01918142FADB019A0399895C30
:104B40000029F5D101990098139A401A0090214646
:104B5000149B00F03BF901998019461807E003986F
:104B600003990078491C0391149A1399904701986E
:104B7000401E0190401CF2D12146149B139A0098CC
:104B800000F014F986196D1C09E741E033E034E0C8
:104B90000A200021049005916002410F022905D0EE
:104BA00001CFC2179446032905D007E0FF1DFF0877
:104BB000FF0003CF06E000B2C2179446042902D1D9
:104BC00040B2C1178C4600226146944506DA0A4677
:104BD0000021404291418C462D2102E0210504D55F
:104BE0002B216A461176012103E0E10701D0202143
:104BF000F7E7019154E00A200BE0102009E01020B3
:104C0000049000210420044308200591029003E051
:104C100008200021059104906002410F022905D06F
:104C200001CF00229446032906D006E0FF1DFF08AD
:104C3000FF0003CF8C4603E080B2042900D1C0B24C
:104C40000021019121072BD50399702906D0049AE0
:104C50001021059B4A401A4305D00EE040216A46C8
:104C60001176012108E06146014306D030216A46F1
:104C700011760399517602210191049A0821059B2E
:104C80004A401A430CD16146014301D1610707D55F
:104C900030216A461176012101910299491E029143
:104CA0000399582904D037A103910FA90F910DE062
:104CB00039A1F9E76146059B049AFBF78BFA039B40
:104CC0008C469B5C0F9A521E0F92137061460143F3
:104CD000F0D10F9807A9081A20300390600704D577
:104CE000012000048443029801E00120029003990E
:104CF000884201DD401A00E000204118029001982E
:104D000009180098401A0090E00306D42146149B2D
:104D1000139A009800F05AF886190020049008E0D1
:104D200006A9085C149A139990470498401C761CB5
:104D3000049001998842F3DBE0030CD52146149BD3
:104D4000139A009800F042F8861904E0149A302073
:104D500013999047761C0299481E02900029F5DCB1
:104D600008E00F980F990078491C0F91149A139935
:104D70009047761C0399481E03900029F1DCFBE65E
:104D80000928010030313233343536373839616221
:104D900063646566000000003031323334353637E5
:104DA000383941424344454600000000F8B5044606
:104DB00000251E461746880404D405E03946202005
:104DC000B0476D1C641EF9D52846F8BDFFB50446F2
:104DD000002581B01E46C80301D5302700E02027FA
:104DE000880404D505E038460399B0476D1C641E5D
:104DF000F9D5284605B0F0BD13B5044B012269462C
:104E00000348FDF723FD00981CBD0000FFFF0000D4
:104E1000640B0020FCF7A6F9FEF7EEFCFDF70AFF95
:104E2000FDF75EFFFEF7CCF8FEF7F0F8FEF722F98B
:104E3000FEF754F9FEF746F8FDF76AFFFDF780FE2E
:104E40001548FCF72DFF00211448FCF787FE0421CC
:104E50001248FCF783FE00211148FCF77FFEFEF7A5
:104E600068FBFBF7DDFB04220E490F48FDF7C7F98D
:104E70000020FEF703FF01220C490D48FDF7B0FCAE
:104E80000A490120491E88700AA0FFF71DFDFDF7A1
:104E90008FFE00F021F8FEE7B80A00206C0A00201F
:104EA000040B002004010020F40B00200901002065
:104EB000840C0020C9CFB5E70D0A00000146002090
:104EC000842900D0C81C704710B5002800D10120EB
:104ED00000F0A2FA002010BD10B500F0E3FA0020A7
:104EE00010BD3EB5044608200D46205EFFF7E6FFE4
:104EF00002A901910090208A2B4682B22168606845
:104F000000F086FB012801D000203EBD02983EBD86
:104F1000F8B5134C0F46E66805462068001D00F002
:104F2000D7F9681C07D1002F05D021680D48091D4D
:104F300000F007FAF8BD2068751945602168B54290
:104F400004D2A06B091D00F0E4F9F8BD606B091DE7
:104F500000F0DFF9A06A8542F7D2A562F8BD000033
:104F600060010020580E0020F8B5054600F0F6F963
:104F7000294CA068401CA0602068284F002803D05E
:104F80006069002827D02CE02560A068012828D17E
:104F9000002614207043C01900F0ADF9761C072ECE
:104FA000F7D31E488C3000F0A6F91C48A03000F062
:104FB000A2F91A48B43000F09EF91848C83000F041
:104FC0009AF91648DC3000F096F914488C3060638A
:104FD0001430A06305E02068E96AC06A884200D8FE
:104FE0002560606A401C6062E86A2169884200D9D5
:104FF000206114214843C019291D00F0A2F900F0D6
:10500000B9F96069002806D02068E96AC06A884258
:1050100001D200F0F5F9F8BD600100207C0D002000
:1050200010B50446006B00F0B3F9204600F0B0F96B
:1050300010BD000003210E48C902420705D0C01D63
:10504000C0080B4AC000821A891A0A4A0023411874
:1050500009C20839C908C900203A11604B600B60C9
:105060000B1A0AC093600120C0075360506170475B
:105070006C0E0020B40100200F4E104C3746C83F84
:1050800011E000F06BF9F068C568281D00F020F908
:10509000A068401EA0606068401E606000F06AF971
:1050A0002846FFF7BDFF60680028EAD1386801286C
:1050B000F9D900F0A5F9F6E7440E002060010020C0
:1050C000FFB581B00C9C9000236B001F1818C70817
:1050D0000A9DFF00780701D072B6FEE726464036EB
:1050E00000290DD0002023180A5C20331A750A5CB1
:1050F000002A02D0401C1028F5D30020F07002E0F6
:10510000002034210855072D00D30625E562002034
:105110006564A064201D00F0F9F82046183000F006
:10512000F5F824610720401B6462A0610020E06460
:1051300030743846049A019900F0BAF820600B9850
:10514000002800D0046005B0F0BD000030B5114962
:1051500000E011460A688242FBD34B685C18844227
:1051600003D1406818184860084643681C189442E8
:1051700009D1084C183C2468A24209D052689A18F8
:1051800042600A6812680260814200D0086030BD47
:105190000460F9E7B40100200648416B0968002962
:1051A00005D0416BC968C9684968816270470021B0
:1051B000C943FAE76001002003480068401C72B64A
:1051C00000D0FEE7FEE70000BC010020002100281F
:1051D0000BD0084B42699A420AD1806A1A46283A93
:1051E000904205D0002802D002E072B6FEE701210D
:1051F00008467047580E0020F8B50546002700F015
:10520000BBF92A4E3068002801D1FFF713FF7069FF
:10521000054242D1002D40D00835680708D0680704
:10522000400F0821081A4519680701D072B6FEE739
:10523000002D32D0706885422FD81C4818300146A6
:105240000C6801E020460C466168A94202D2216840
:105250000029F7D131688C421FD0076821680160AE
:1052600060680837411B102908D96019420701D02E
:1052700072B6FEE741606560FFF768FF61687068BD
:10528000401A7060B268904200D2B0607069014309
:10529000002003C4F068401CF06000F03FFA78077B
:1052A00001D072B6FEE73846F8BD00009C01002030
:1052B00010B50124031F24061C601B1F1960191F51
:1052C000024B0B60143940380A6010BDB951000818
:1052D0004368826801699A60836842685A604A68D4
:1052E000824201D182684A60002202610868401E41
:1052F0000860086870470146083100224160D243C7
:10530000C16082600161002101607047002101617C
:10531000704730B50B685A1C02D00246083202E0D2
:10532000026904E02246546825689D42FAD9536810
:105330004B6099608A60516008610168491C016096
:1053400030BD42684A6093688B6093685960916091
:1053500008610168491C01607047000072B604488A
:105360000168491C0160BFF34F8FBFF36F8F704717
:10537000BC01002005490868002804D0401E0860D0
:1053800000D162B6704772B6FEE70000BC01002093
:1053900070B500281DD004460E4D083C6068696950
:1053A000084201D172B6FEE72268002A01D072B627
:1053B000FEE78843606000F0DFF8606869684018C5
:1053C00068602046FFF7C2FE2869401C286100F093
:1053D000A5F970BD9C01002010B5074C002020618C
:1053E000A06106487D21C9000068FAF7B9FE401E99
:1053F00060610720206110BD00E000E05C0100203A
:105400000120044900074860BFF34F8FBFF36F8F3F
:105410007047000000ED00E010B502000FD0094811
:10542000006B002801D072B6FEE700F0A5F800215D
:105430001046FFF76DFD00F071F9002801D1FFF76C
:10544000DFFF10BD6001002070B5040023D0134DB4
:10545000286884421ED0FFF781FF2046FFF7B6FE82
:10546000002815D0201DFFF733FFE06A2969884224
:1054700000D928611421484309494018211DFFF72C
:1054800060FFE06A2968C96A884201D3FFF7B8FF64
:10549000FFF770FF70BD72B6FEE7000060010020EC
:1054A0007C0D00201CB50E4800240190234680226C
:1054B0000CA100940D4800F0ABF8012803D0401C6B
:1054C0000CD172B6FEE772B600210548C9432C38EC
:1054D000816201214161C46000F082F81CBD0000BE
:1054E0008C01002049444C45000000007950000820
:1054F00070B50446FFF732FF1D4D002C00D12C681B
:10550000201DFFF7E5FEA06A002803D020461830D2
:10551000FFF7DEFE211D1748FFF713FF204640303E
:10552000017C0026012900D10674FFF723FF68697A
:10553000002805D0FFF712FFFFF72EFEFFF71AFF36
:105540002868844209D16869002807D0286B0028A0
:1055500001D072B6FEE7FFF753FF70BD0548006843
:10556000A968884201D12E6070BD00F00DF870BDB1
:1055700060010020580E00200248016B491C0163A5
:10558000704700006001002010B51348016B00292E
:1055900002D00121C16110BD0021C16101690F4A22
:1055A00002E0002915D0491E14234B43D358002B89
:1055B000F7D014234B439A18536814465B68083499
:1055C0005360A34201D15B685360DA6802600161F5
:1055D00010BD72B6FEE70000600100207C0D0020C7
:1055E00010B50948016AFF22120411430162016AE1
:1055F000120211430162FFF7EFFE04490020086028
:10560000FAF764FD002010BD00ED00E0BC010020B1
:10561000FFB585B0164690000F9FFFF7EDFD050022
:105620001AD05420FFF7E8FD040012D025630021B2
:105630000E9803910197009002943246089B0699B8
:105640000598FFF73DFD2046FFF78EFC012009B0CD
:10565000F0BD2846FFF79CFE0020C043F7E700009E
:10566000F8B52C4C0027206B002804D0A069401C02
:10567000A0613846F8BDE668761CE6600ED1606B26
:105680000068002801D072B6FEE7606BA16B616311
:10569000A063206A401C2062FFF77EFDA06A86425C
:1056A0000AD3606B0068002814D0606BC068C568BE
:1056B0006868864211D2A06220681421C06A4843FB
:1056C00015490858012800D90127E0690028D0D0E1
:1056D0000127CEE70020C043EDE7281DFFF7F8FDC6
:1056E000A86A002803D028461830FFF7F1FDE86AC1
:1056F0002169884200D92061142148430649401895
:10570000291DFFF71EFEE86A2168C96A8842C8D3CE
:105710000127C6E7600100207C0D0020F8B5284C69
:105720000025206B2E46002808D0FFF717FE206BBF
:10573000401E2063206B002802D03DE072B6FEE7D9
:10574000A168204F00291DD136E0F868C5682846B9
:105750001830FFF7BDFD281DFFF7BAFDE86A216983
:10576000884200D92061142148431649B4394018B1
:10577000291DFFF7E6FDE86A2168C96A884201D35E
:105780000120E06138680028DFD1002D01D0FFF74B
:1057900003FDA569002D09D00127FFF761FF00284F
:1057A00000D0E7616D1EF8D10020A061E0690028FB
:1057B00002D00126FFF724FEFFF7DCFD3046F8BDDE
:1057C00060010020300E0020E4580008292900085C
:1057D000FDFF00000000000080000000B458000839
:1057E00019310008000000000000000080000000E7
:1057F000C0580008F9460008020000000000000040
:10580000C8000000CC580008C503000801000000D3
:1058100000000000C8000000D8580008D1040008AB
:10582000FEFF0000000000008000000001000200F8
:105830000400060008000A000C00100020004000D0
:1058400080000001010101030701000008040204B7
:10585000080101010000000000000000000000003D
:105860000000000000000000000000000000000038
:105870000000000001000000020000000300000022
:1058800004000000060000000700000008000000FF
:1058900009000000000000000000000000000000FF
:1058A00000000000010000000200000003000000F2
:1058B000040000006D795461736B30320000000009
:1058C0006D795461736B3033000000006D79546161
:1058D000736B3034000000006D795461736B3035A8
:1058E0000000000064656661756C745461736B0040
:1058F0001059000800000020C40100009A020008AE
:10590000245A0008C4010020AC2800007449000893
:105910006110FF5EBCE2613FDD83C29C7E20A3FD7F
:105920001F419DC3217FFCA2401E5F01E3BD3E607D
:1059300082DC237D9FC1421CFEA0E1BF5D0380DEAF
:105940003C62BEE0025CDF81633D7C22C09E1D4361
:10595000A1FF4618FAA427799BC584DA3866E5BB0F
:105960005907DB856739BAE406581947A5FB78263D
:10597000C49A653BD987045AB8E6A7F91B45C6986F
:105980007A24F8A6441A99C7257B3A6486D85B0521
:10599000E7B98CD2306EEDB3510F4E10F2AC2F71CF
:1059A00093CD114FADF3702ECC92D38D6F31B2ECFD
:1059B0000E50AFF1134DCE90722C6D33D18F0C522F
:1059C000B0EE326C8ED0530DEFB1F0AE4C1291CFE1
:1059D0002D73CA947628ABF517490856B4EA69378F
:1059E000D58B5709EBB536688AD495CB2977F4AABD
:1059F0004816E9B7550B88D6346A2B7597C94A14EF
:105A0000F6A8742AC896154BA9F7B6E80A54D789A0
:105A10006B023D3502100342019204035E24F455EB
:045A2000AAAAAAAADA
:04000005080000B936
:00000001FF
